:020000040800F2
:1000000000000220A97A0008F97A0008F97A0008AD
:10001000F97A0008F97A0008F97A0008000000006F
:10002000000000000000000000000000F97A000855
:10003000F97A000800000000F97A0008C7510008AA
:10004000F97A0008F97A0008F97A0008F97A0008C4
:10005000F97A0008F97A00088D53000893530008D4
:10006000995300089F530008A5530008F97A000827
:10007000F97A0008F97A0008F97A0008F97A000894
:10008000F97A0008F97A0008F97A0008F97A000884
:10009000F97A0008F97A0008F97A0008AB530008E9
:1000A0005144000869430008654400088D43000876
:1000B000A1430008B5430008C9430008F97A0008C5
:1000C000F97A0008F97A0008F97A0008F97A000844
:1000D000F97A00082D5D0008455D0008615D0008A3
:1000E000D3530008F97A0008E96900087944000848
:1000F000194400088D4400083D440008F97A0008BE
:10010000F97A0008F97A0008DD430008F97A000856
:100110007D5D0008955D0008F14300080544000876
:10012000F97A0008F97A0008F97A0008F97A0008E3
:10013000F97A0008F97A0008F97A0008F97A0008D3
:10014000F97A0008F97A0008F97A0008DD690008F0
:10015000F97A0008F97A0008F97A0008AD5D00081C
:10016000F97A0008F97A0008F97A0008F97A0008A3
:10017000F97A0008F97A0008F97A0008000000000E
:08018000F97A0008F97A000881
:10019000034613F8012B002AFBD1181A01387047C7
:1001A00001F0FF01102A2BDB10F0070F08D010F828
:1001B000013B013A8B422DD010F0070F42B3F6D12C
:1001C000F0B441EA012141EA014122F007047FF045
:1001D00000070023F0E80256083C85EA010586EA9C
:1001E000010685FA47F5A3FA87F586FA47F6A5FAD8
:1001F00087F68EB9EED1F0BC01F0FF0102F00702E4
:1002000032B110F8013B013A83EA010313B1F8D18E
:100210000020704701387047002D06BF354603386F
:10022000073815F0010F07D1013015F4807F02BFA8
:10023000013015F4C03F0130F0BC0138704700BFF9
:1002400081F0004102E000BF83F0004330B54FEA87
:1002500041044FEA430594EA050F08BF90EA020FF4
:100260001FBF54EA000C55EA020C7FEA645C7FEA87
:10027000655C00F0E2804FEA5454D4EB5555B8BFAA
:100280006D420CDD2C4480EA020281EA030382EA1B
:10029000000083EA010180EA020281EA0303362DAD
:1002A00088BF30BD11F0004F4FEA01314FF4801C80
:1002B0004CEA113102D0404261EB410113F0004F92
:1002C0004FEA03334CEA133302D0524263EB430349
:1002D00094EA050F00F0A780A4F10104D5F1200EE7
:1002E0000DDB02FA0EFC22FA05F2801841F1000142
:1002F00003FA0EF2801843FA05F359410EE0A5F116
:1003000020050EF1200E012A03FA0EFC28BF4CF046
:10031000020C43FA05F3C01851EBE37101F00045FC
:1003200007D54FF0000EDCF1000C7EEB00006EEB09
:100330000101B1F5801F1BD3B1F5001F0CD3490893
:100340005FEA30004FEA3C0C04F101044FEA4452EA
:1003500012F5800F80F09A80BCF1004F08BF5FEA71
:10036000500C50F1000041EB045141EA050130BD51
:100370005FEA4C0C404141EB0101013C28BFB1F563
:10038000801FE9D291F0000F04BF01460020B1FAAE
:1003900081F308BF2033A3F10B03B3F120020CDA81
:1003A0000C3208DD02F1140CC2F10C0201FA0CF05F
:1003B00021FA02F10CE002F11402D8BFC2F1200CC4
:1003C00001FA02F120FA0CFCDCBF41EA0C0190407A
:1003D000E41AA2BF01EB0451294330BD6FEA0404C3
:1003E0001F3C1CDA0C340EDC04F11404C4F12002AE
:1003F00020FA04F001FA02F340EA030021FA04F3C0
:1004000045EA030130BDC4F10C04C4F1200220FA16
:1004100002F001FA04F340EA0300294630BD21FA54
:1004200004F0294630BD94F0000F83F4801306BF1A
:1004300081F480110134013D4EE77FEA645C18BF0E
:100440007FEA655C29D094EA050F08BF90EA020FA5
:1004500005D054EA000C04BF1946104630BD91EA9D
:10046000030F1EBF0021002030BD5FEA545C05D1A0
:100470004000494128BF41F0004130BD14F58004DF
:100480003CBF01F5801130BD01F0004545F0FE4153
:1004900041F470014FF0000030BD7FEA645C1ABF88
:1004A000194610467FEA655C1CBF0B46024650EABF
:1004B000013406BF52EA033591EA030F41F40021EB
:1004C00030BD00BF90F0000F04BF0021704730B571
:1004D0004FF4806404F132044FF000054FF0000146
:1004E00050E700BF90F0000F04BF0021704730B507
:1004F0004FF4806404F1320410F0004548BF4042DC
:100500004FF000013EE700BF42004FEAE2014FEA30
:1005100031014FEA02701FBF12F07F4393F07F4F0B
:1005200081F06051704732F07F4208BF704793F00E
:100530007F4F04BF41F40021704730B54FF4607421
:1005400001F0004521F000411CE700BF50EA010224
:1005500008BF704730B54FF000050AE050EA0102CD
:1005600008BF704730B511F0004502D5404261EB3D
:1005700041014FF4806404F132045FEA915C3FF47E
:10058000D8AE4FF003025FEADC0C18BF03325FEA1B
:10059000DC0C18BF033202EBDC02C2F1200300FACC
:1005A00003FC20FA02F001FA03FE40EA0E0021FAF1
:1005B00002F11444BDE600BF70B54FF0FF0C4CF4DF
:1005C000E06C1CEA11541DBF1CEA135594EA0C0F91
:1005D00095EA0C0F00F0DEF82C4481EA030621EACC
:1005E0004C5123EA4C5350EA013518BF52EA033507
:1005F00041F4801143F4801338D0A0FB02CE4FF0B9
:100600000005E1FB02E506F00042E0FB03E54FF0E8
:100610000006E1FB03569CF0000F18BF4EF0010EE0
:10062000A4F1FF04B6F5007F64F5407404D25FEADC
:100630004E0E6D4146EB060642EAC62141EA55518F
:100640004FEAC52040EA5E504FEACE2EB4F1FD0CD1
:1006500088BFBCF5E06F1ED8BEF1004F08BF5FEA4F
:10066000500E50F1000041EB045170BD06F0004601
:1006700046EA010140EA020081EA0301B4EB5C04AE
:10068000C2BFD4EB0C0541EA045170BD41F48011A6
:100690004FF0000E013C00F3AB8014F1360FDEBFCB
:1006A000002001F0004170BDC4F10004203C35DAA7
:1006B0000C341BDC04F11404C4F1200500FA05F32A
:1006C00020FA04F001FA05F240EA020001F00042CB
:1006D00021F0004110EBD37021FA04F642EB060141
:1006E0005EEA430E08BF20EAD37070BDC4F10C046B
:1006F000C4F1200500FA04F320FA05F001FA04F22F
:1007000040EA020001F0004110EBD37041F100011A
:100710005EEA430E08BF20EAD37070BDC4F1200525
:1007200000FA05F24EEA020E20FA04F301FA05F28D
:1007300043EA020321FA04F001F0004121FA04F235
:1007400020EA020000EBD3705EEA430E08BF20EA05
:10075000D37070BD94F0000F0FD101F0004640003F
:1007600041EB010111F4801F08BF013CF7D041EAC1
:10077000060195F0000F18BF704703F000465200C5
:1007800043EB030313F4801F08BF013DF7D043EA96
:100790000603704794EA0C0F0CEA135518BF95EA4C
:1007A0000C0F0CD050EA410618BF52EA4306D1D1D3
:1007B00081EA030101F000414FF0000070BD50EAF2
:1007C000410606BF1046194652EA430619D094EA7C
:1007D0000C0F02D150EA013613D195EA0C0F05D166
:1007E00052EA03361CBF104619460AD181EA0301BA
:1007F00001F0004141F0FE4141F470014FF0000072
:1008000070BD41F0FE4141F4780170BD70B54FF00C
:10081000FF0C4CF4E06C1CEA11541DBF1CEA13558C
:1008200094EA0C0F95EA0C0F00F0A7F8A4EB05046E
:1008300081EA030E52EA03354FEA013100F0888065
:100840004FEA03334FF0805545EA131343EA12632E
:100850004FEA022245EA111545EA10654FEA0026E3
:100860000EF000419D4208BF964244F1FD0404F59C
:10087000407402D25B084FEA3202B61A65EB0305F8
:100880005B084FEA32024FF480104FF4002CB6EBB5
:10089000020E75EB030E22BFB61A754640EA0C0035
:1008A0005B084FEA3202B6EB020E75EB030E22BF75
:1008B000B61A754640EA5C005B084FEA3202B6EBB6
:1008C000020E75EB030E22BFB61A754640EA9C0075
:1008D0005B084FEA3202B6EB020E75EB030E22BF45
:1008E000B61A754640EADC0055EA060E18D04FEA03
:1008F000051545EA16754FEA06164FEAC30343EAA3
:1009000052734FEAC2025FEA1C1CC0D111F4801F6F
:100910000BD141EA00014FF000004FF0004CB6E768
:1009200011F4801F04BF01430020B4F1FD0C88BF07
:10093000BCF5E06F3FF6AFAEB5EB030C04BFB6EB12
:10094000020C5FEA500C50F1000041EB045170BD05
:100950000EF0004E4EEA113114EB5C04C2BFD4EB32
:100960000C0541EA045170BD41F480114FF0000EB6
:10097000013C90E645EA060E8DE60CEA135594EA32
:100980000C0F08BF95EA0C0F3FF43BAF94EA0C0F35
:100990000AD150EA01347FF434AF95EA0C0F7FF4AA
:1009A00025AF104619462CE795EA0C0F06D152EAFE
:1009B00003353FF4FDAE1046194622E750EA4106E2
:1009C00018BF52EA43067FF4C5AE50EA41047FF4F3
:1009D0000DAF52EA43057FF4EBAE12E74FEA410256
:1009E000B2F1E04324BFB3F5001CDCF1FE5C0DD98D
:1009F00001F0004C4FEAC0024CEA5070B2F1004FD7
:100A000040EB830008BF20F00100704711F0804FD9
:100A100021D113F13872BCBF01F00040704741F49E
:100A200080114FEA5252C2F11802C2F1200C10FAA2
:100A30000CF320FA02F018BF40F001004FEAC12386
:100A40004FEAD32303FA0CFC40EA0C0023FA02F32A
:100A50004FEA4303CCE77FEA625307D150EA013300
:100A60001EBF4FF0FE4040F44000704701F00040D0
:100A700040F0FE4040F40000704700BF53B94AB94F
:100A8000002908BF00281CBF4FF0FF314FF0FF3096
:100A900000F00CB8ADF1080C6DE904CE08F02EFEA4
:100AA000DDF804E0DDE9022304B07047704700BFC1
:100AB00010B5054C237833B9044B13B10448AFF398
:100AC00000800123237010BD1802002000000000E8
:100AD000FC99000808B5034B1BB103490348AFF369
:100AE000008008BD000000001C020020FC990008E6
:100AF000024A138801339BB2138070473C020020E6
:100B0000012A02D1016000207047022A05D0032A81
:100B1000F9D0002AF7D10260F5E70B680360F2E72D
:100B200003681847000000002DE9F0472DED068B03
:100B30005548564D564F84B0002101F019F80FF278
:100B40004019D9E900890024002607EE904AF8EE02
:100B5000E76AD5ED007A9FED4F8A9FED4FAAB3EE7D
:100B60000B7AE6EEC77A4FF6FF7AF0EE489A17EE68
:100B7000900AFFF7C9FC42464B46FFF71DFD32467F
:100B80003B46FFF743FEFFF729FF08EE900AB0EE61
:100B9000680A07F03BFFB0EE409AE0EE0A9AB0EE2A
:100BA000680A07F06BFFDFED3D8A9FED3D6A36482E
:100BB000CDF804A0F0EE687AE0EE467AB0EE687AFE
:100BC000F0EE486AA0EE4A7AE9EE066AFDEEE77AB0
:100BD000FDEEE66A17EE903ABDEEC77AFDEEE99AB1
:100BE0001BB217EE102A009319EE901A16EE903AE7
:100BF00012B21BB209B2F1EE40AA01F08FF84FF425
:100C0000FA626243274902A807F0F0FADFED267A7C
:100C10001D48EAEEA78A0134A9EE278AF1EE0C7A84
:100C200078EEE78AF2EE047A38EE678AFDEEE88A1B
:100C3000BDEEC88A18EE903A1AB218EE103A19B200
:100C400000F0A6FF1048514600F0AEFF0E4801210B
:100C500000F0A1FF0C4802A906F06EFE0B2C7FF4F9
:100C600074AF0948CDF800A05A238C22A02100F0CF
:100C7000B0FF04B0BDEC068BBDE8F087AFF3008099
:100C8000182D4454FB21094040020020040000209C
:100C900000806640000020430000A04200000C439A
:100CA0000000B442149A00080000704200000000E6
:100CB00030B53F4DD5ED007A2DED068BF5EEC07ABF
:100CC000F1EE10FA10EE104A9FED3A9ADFED3A8AF3
:100CD0009FED3A8A83B032DB17EE900AFFF714FCDF
:100CE00031A3D3E90023FFF767FC354B0022FFF760
:100CF0008DFDFFF773FE09EE900AB0EE690A07F06A
:100D000085FEB0EE68AAA0EE09AAB0EE690A07F067
:100D1000B5FEF0EE487AE0EE497A00230193BDEE8D
:100D2000CAAAFDEEE77A274817EE903A1BB2009365
:100D30001AEE103A8C221BB2A02100F0EFFF2046E1
:100D4000FFF7E2FB18A3D3E90023FFF735FC1C4BA8
:100D50000022FFF75BFDFFF741FE09EE900AB0EEBF
:100D6000690A07F053FEE0EE098AB0EE690A07F05F
:100D700085FEA0EE498A4FF478430193FDEEE88AA0
:100D8000BDEEC88A0F4818EE103A1BB2009318EE59
:100D9000903A8C221BB2A02100F0C0FF2C6003B05F
:100DA000BDEC068B30BD00BF182D4454FB2109401B
:100DB00000000020000096420000204300000C4389
:100DC000008066404002002010B5002204464FF625
:100DD000FF710D4800F0EBFE0B48022100F0DBFE36
:100DE0000A220948642100F0D3FE0849064806F0AB
:100DF000A3FD214604480A2206F0E5FDBDE81040A7
:100E00000349014806F098BD40020020179A0008E7
:100E10001D9A00081FB5184801F05FF91648002117
:100E200000F0A6FEFFF780FE0221C92006F066FE54
:100E3000124B5A6A124B53F82200431C4FF0000326
:100E40000193104B0093104B03934FF004020F4B90
:100E50000293694618BFC92006F0B8FD029B1BB17A
:100E6000032269466846984706F0EAFE084B186078
:100E700005B05DF804FB00BF4002002054DC000810
:100E8000A0DC0008F10A0008210B0008010B000893
:100E90003802002070B5204D06F0D2FE2B68C31A30
:100EA000B3F57A7F044631D372B61C4A1388002109
:100EB0009BB2118062B63C22534307EE903A9FEDFD
:100EC000187A184A184E92ED000A3360F8EEE77A65
:100ED000C7EE876ADFED157AB0EE407AA6EEE77AC4
:100EE00070EE677AF4EEC77AF1EE10FAD8BFF0EE42
:100EF000477AB4EEE70AF1EE10FA58BFB0EE670A8F
:100F0000FFF7D6FE3068FFF75FFF2C60BDE870404A
:100F1000642006F097BE00BF380200203C0200208B
:100F200000409C460400002034020020000087435B
:100F300013B50E4C0121204600F0CEFD0C4A0D4B9E
:100F400053600023C2E902340B4B13600B4B136157
:100F500049F241335361F023009321464FF4A073CB
:100F6000074800F0D7FD02B010BD00BF900200207E
:100F700078020020229A0008109B0008299A000895
:100F8000400200207047002070470020704700207A
:100F900070470020704700207047002070470020F5
:100FA00070470020704700207047002070472DE9EF
:100FB000F3410446C068BDF820801F4603685B6D9E
:100FC0000D46164698472368CDF80080D3F8148064
:100FD00020463B4632462946C047E06803689B6D81
:100FE00002B0BDE8F04118472DE9F3410446C0685E
:100FF0001E4603685B6D0F461546984723680095AB
:10100000D3F814802A463B4639462046C047E0685C
:1010100003680122DB6C31469847E06803689B6DEA
:1010200002B0BDE8F04118472DE9F04F0646C06810
:1010300087B09B460368BDF940505B6DBDF844A086
:10104000904689469847A5EB0801ABEB09020029B9
:10105000B8BF4942002AB8BF524291422F46444687
:1010600058464B4605DC284643465D46C846BB46C7
:10107000A146A84508DC1C46034620465C46CB46F4
:10108000A1462C464546A0461FFA88F41B1A671B4A
:1010900083EAE370A0EBE3700294CB45B4BF012375
:1010A0004FF0FF33BCB291420394049047F34E07D4
:1010B000059341DC29464FF0000945455BDDB9F158
:1010C000000F51D030681FFA8BF219FA81F30092A9
:1010D000013B44699BB2304689B2A047F06803687F
:1010E0004A46DB6C51469847F06803689B6D984709
:1010F0003AE0049BFF1ABBB23FB201340135002F26
:1011000024B22DB21ADA03990B441FB20299336844
:1011100000911FFA8BFB5946D3F8149092B25B46AC
:101120003046C847F06803682246DB6C5146984752
:10113000059B9B440FFA8BFB2A4600244545D8DDCE
:1011400094B114FA82F10139306889B21FFA8BF335
:1011500000914569194692B23046A847F068036885
:101160002246DB6C51469847F06803689B6D07B0D8
:10117000BDE8F04F1847049BFF1ABBB23FB209F11C
:1011800001090135002F0FFA89F92DB295DA039A7A
:1011900013441FFA8BF41FB233680094D3F814B0D1
:1011A000029B224689B23046D847F06803684A4617
:1011B000DB6C51469847059B1C440FFA84FB79E78A
:1011C0002DE9F04F0446C0689846036885B05B6D12
:1011D000BDF83C90BDF938A00D461646984708F179
:1011E000FF331FFA85FB13FA85F5ABB2B6B2039352
:1011F000236800965F69039B324659462046B847EC
:10120000E06803680AF1FF3742464946DB6C374421
:101210009847BFB2236800975B693A461D46594616
:10122000039B2046A847E068036842464946DB6CBA
:10123000984723680097D3F8148032465B46594696
:101240002046C047E068036852464946DB6C984731
:10125000236800975F69039B324619462046B847CA
:10126000E06803685246DB6C49469847E0680368CB
:101270009B6D05B0BDE8F04F18472DE9F3470446D4
:10128000C068BDF92860BDF82C701D4603685B6D11
:10129000914688469847701E10FA89F080B20090F7
:1012A00022686B1E13FA88F3D2F814A01FFA88F193
:1012B0001FFA89F220469BB2D047E068036805FB1D
:1012C00006F2DB6C39469847E06803689B6D02B014
:1012D000BDE8F0471847C06803682031DB6AC9B22F
:1012E0001847036810B45C680022A44603235DF825
:1012F000044BD3216047F8B5042B0546C06828BFCE
:1013000004231C4603685B6D0E4617469847E86841
:1013100003683146DB6B9847E86803681B6A9847A7
:101320000026E868B742036807D10026E86803682A
:101330003CB99B6D98473046F8BD1B6A984701360B
:10134000EFE71B6A98473602013C0643E4B2EDE73B
:101350001FB50DF10E030468019301230093E468A7
:10136000A047BDF80E0004B010BD00002DE9F74FF6
:10137000BDF830605F1E013E0F44164404468846A7
:101380001546BFB2B6B2B54242D903B0BDE8F08F40
:10139000E0680268526D9047226800954B46D2F88B
:1013A00014B049462A462046D847E06802682E21F4
:1013B000D26B9047E0680268126A9047E068026862
:1013C000126A90478246E0680168096A8847834646
:1013D000E0680168096A88470E4B4FEACA0203EACF
:1013E0000B2B02F4FC624BEA020B0D9B4BEAD00B79
:1013F000E06823F802BB02680D93926D904709F1F3
:1014000001031FFA83F9B945C2D90135ADB2BAE774
:10141000C146F8E700F8FFFF2DE9F0410446C06837
:10142000BDF818801E4603680F46DB6B2A2115465F
:101430009847E0680368390A5B6C9847E06803687E
:10144000F9B25B6C9847E0680368310A5B6C9847B7
:10145000E0680368F1B25B6C9847E06803682B2191
:10146000DB6B9847E0680368290A5B6C9847E06883
:101470000368E9B25B6C9847E06803684FEA18219B
:101480005B6C9847E06803685FFA88F15B6C98478B
:10149000E0680368BDE8F041DB6B2C21184770B5AC
:1014A0000546C06803685B6D0C469847E8680368AA
:1014B0003621DB6B9847E86804F0030103680229D2
:1014C0005B6C0CD003290CD0012914BF48212821C2
:1014D0009847E8680368BDE870409B6D184788210D
:1014E000F6E7E821F4E710B50446C06803685B6DD1
:1014F0009847E0680368EF21DB6B9847E068036872
:1015000003215B6C9847E068036880215B6C984717
:10151000E068036802215B6C9847E0680368CF21AC
:10152000DB6B9847E068036800215B6C9847E068D4
:101530000368C1215B6C9847E068036830215B6CED
:101540009847E0680368ED21DB6B9847E068036823
:1015500064215B6C9847E068036803215B6C9847E3
:10156000E068036812215B6C9847E068036881219A
:101570005B6C9847E0680368E821DB6B9847E0689C
:10158000036885215B6C9847E068036800215B6C09
:101590009847E068036878215B6C9847E0680368C7
:1015A000CB21DB6B9847E068036839215B6C984777
:1015B000E06803682C215B6C9847E06803680021B1
:1015C0005B6C9847E068036834215B6C9847E0687F
:1015D000036802215B6C9847E0680368F721DB6BC6
:1015E0009847E068036820215B6C9847E0680368CF
:1015F000EA21DB6B9847E068036800215B6C984741
:10160000E068036800215B6C9847E0680368C021CC
:10161000DB6B9847E068036823215B6C9847E068C0
:101620000368C121DB6B9847E068036810215B6C9D
:101630009847E0680368C521DB6B9847E06803685A
:101640003E215B6C9847E068036828215B6C9847F3
:10165000E0680368C721DB6B9847E0680368862170
:101660005B6C9847E06803683621DB6B9847E0685D
:10167000036848215B6C9847E06803683A21DB6B9C
:101680009847E068036855215B6C9847E0680368F9
:10169000B121DB6B9847E068036800215B6C9847D9
:1016A000E068036818215B6C9847E0680368B6211E
:1016B000DB6B9847E068036808215B6C9847E0683B
:1016C000036882215B6C9847E068036827215B6CA4
:1016D0009847E0680368F221DB6B9847E06803688D
:1016E00000215B6C9847E06803682621DB6B984714
:1016F000E068036801215B6C9847E0680368E021BB
:10170000DB6B9847E06803680F215B6C9847E068E3
:10171000036831215B6C9847E06803682B215B6CA0
:101720009847E06803680C215B6C9847E0680368A1
:101730000E215B6C9847E068036808215B6C984752
:10174000E06803684E215B6C9847E0680368F1210C
:101750005B6C9847E068036837215B6C9847E068EA
:10176000036807215B6C9847E068036810215B6C95
:101770009847E068036803215B6C9847E06803685A
:101780000E215B6C9847E068036809215B6C984701
:10179000E068036800215B6C9847E0680368E1211A
:1017A000DB6B9847E068036800215B6C9847E06852
:1017B00003680E215B6C9847E068036814215B6C3A
:1017C0009847E068036803215B6C9847E06803680A
:1017D00011215B6C9847E068036807215B6C9847B0
:1017E000E068036831215B6C9847E0680368C121B9
:1017F0005B6C9847E068036848215B6C9847E06839
:10180000036808215B6C9847E06803680F215B6CF4
:101810009847E06803680C215B6C9847E0680368B0
:1018200031215B6C9847E068036836215B6C984710
:10183000E06803680F215B6C9847E068036811213A
:10184000DB6B9847E06803689B6D9847782006F04B
:10185000F9F9E06803685B6D9847E068036829213F
:10186000DB6B9847E0680368BDE810409B6D184744
:1018700010B5036804465B6B9847236820469B6954
:10188000BDE81040184710B5036804469B6B012261
:10189000984723682046DB69BDE810401847704729
:1018A000704770474FF0D84393F8800070474FF06F
:1018B000D843B3F8800070474FF0D843B3F88000A6
:1018C00070474FF0D843197070474FF0D8431980D4
:1018D00070474FF0D84383F8801070474FF0D843DB
:1018E00002B97047A3F88010013AF9E70A444FF0B3
:1018F000D843914200D1704711F8010B83F8800062
:10190000F7E770B5036804460D46DB6C0122090A4F
:1019100098472368E9B22046DB6CBDE8704001229D
:1019200018477047037EB0F916005B1A59425941B7
:1019300006F04EB937B55F4A136B43F07803136373
:10194000136B01935C4B196A01F0FF2141F0CC113C
:101950001962596A04465948084059490143596275
:101960001D68584958480D40284318609D685748DD
:101970000D4028439860586808405860D868014076
:10198000D960D3F8201421F0704141F04041C3F8F0
:101990002014D3F824144FF0CC31C3F82414D3F816
:1019A00000044B49C0F30D000143C3F80014D3F801
:1019B00008044849C0F30D000143C3F80814D3F8E4
:1019C0000414C1F30D01C3F80414D3F80C14C1F3CB
:1019D0000D01C3F80C14D3F82018C3F82018D3F85D
:1019E0002418B4F9160021F4702141F44021C3F801
:1019F0002418D3F8001821F0407141F00071C3F8A9
:101A00000018D3F8081821F0407141F08071C3F834
:101A10000818D3F8041821F04071C3F80418D3F85B
:101A20000C1821F04071C3F80C18D3F8201CC3F82F
:101A3000201CD3F8241C21F4702141F44021C3F868
:101A4000241CD3F8001C21F0407141F00071C3F850
:101A5000001CD3F8081C21F0407141F08071C3F8DC
:101A6000081CD3F8041C21F04071C3F8041CD3F8FF
:101A70000C1C21F04071C3F80C1C03F50063936B40
:101A800043F001039363136B0193019B4FF02043D9
:101A900041F2D9029A6141F60F62DA61002106F043
:101AA00097F8B4F91600012103B0BDE8304006F004
:101AB00025B800BF00380240000C024000F0FF00D3
:101AC000CC0C00CCF0F0C00F0A0A2AA00505155076
:101AD0000080AAAA00405555074A4260074ADFF82D
:101AE00028C00260064A82604FF41C12C0E903C29B
:101AF000044A426101767047389A0008789B0008D2
:101B00003D9A00082600C0002D00490000207047C3
:101B100070470000F0B5BDF81460C381B342C0E95E
:101B20000C1294BF00220122B34242721A4628BF0F
:101B300032464281B3421A464FF0010380F8293001
:101B400040F2011303624FF6FF734FF00005074F99
:101B5000836138BF32464FF4EB7345600760828182
:101B60000682458245618383C562F0BDE49B00081F
:101B700013B50346406B02680191B3F91010009150
:101B8000146BB3F90E3000221146A04702B010BD0D
:101B9000418282827047012938BF0121072928BF6D
:101BA000072180F82110704741830183704701832A
:101BB0004283704730B4C5898D4208D9058A954261
:101BC00005D9406B0468646AA44630BC604730BCE9
:101BD00070472DE9F04F044687B0406BBDF8405088
:101BE000D0F800C00095DCF834808B4617461E46BE
:101BF000C047804658BB73001FFA86F903937310E1
:101C0000BFB25B4219FA8BF11FFA8BFA02933A4684
:101C10002B4689B22046FFF7CDFFAAEB09012B46E0
:101C20003A4689B22046FFF7C5FFA7EB09022B46CB
:101C300092B251462046FFF7BDFF09EB07022B4643
:101C400092B251462046FFF7B5FF464502DC07B089
:101C5000BDE8F08F029B002B08DB039B023B039344
:101C6000DDE90232013E9B1A029336B2029B03EB7E
:101C70004803033308F1010802931AFA88F31FFAA4
:101C800083FB17FA86F292B259462B4620460492FD
:101C9000FFF790FF1FFA88F3AAEB03011FFA86F9FA
:101CA00089B2049A05912B462046FFF783FFA7EBE4
:101CB000090292B2059904922B462046FFF77AFF5B
:101CC0005946049A2B462046FFF774FF0AEB090B8E
:101CD0001FFA88F31FFA8BFBFA1892B22B4659466B
:101CE0002046AAEB09090492FFF764FF1FFA89F165
:101CF000049A04912B462046FFF75CFF1FFA88F3F5
:101D0000A7EB03091FFA89F904992B464A46204696
:101D1000FFF750FF2B464A46594693E770B4406B95
:101D2000BDF90C50BDF810600468CDE90356A46AF3
:101D3000A44670BC604773B5C589A94214DA048A09
:101D4000A24211DA5E18B5428CB2B8BF2D1B406BAF
:101D5000B8BF2BB2BDF81850013C23440468CDE94C
:101D600000251BB2A46AA04702B070BDF0B4C589BB
:101D7000BDF91060BDF81470A94217DA048AA242B6
:101D800014DA9BB196B103EB010C6545BCBF6D1A2B
:101D90002BB2B518AC42406BBCBFA41A26B2046883
:101DA000CDE90467246BA446F0BC6047F0BC7047E3
:101DB0002DE9F04F91B09846BDF868300393B0F923
:101DC0000E30BDF86C709DF8704004928B42054651
:101DD0000E464FF0000A40F39F80B0F91030934256
:101DE00040F39A80062314FB0313534540F3948079
:101DF0004FF0080914FB0923534540F38D80C36A53
:101E0000002B40F0B080012C4DD1039BBB424AD047
:101E1000006B03685B6D9847BDF81020686B02EBA0
:101E20000903B1B29BB20668009301F1050C766913
:101E30001FFA8CF3B04708EB88089E4B53F8080054
:101E40000E9008EB03020EAE13793371039B7FBA39
:101E500093FA93FA1FFA8AFABFB24FF00008286B80
:101E600016F808200368144214BF51463946DB6C4B
:101E7000012208F101089847B8F1050FEFD1286B4E
:101E800003680122DB6C394609F1FF399847640089
:101E900019F0FF09E4B2E0D1286B03689B6D11B023
:101EA000BDE8F04F184708EB880308930623079313
:101EB00023B24FF000080593B8F1050F1DBF089B32
:101EC0007C4A43444FF0000918BF12F80390012CDC
:101ED00025D108EB060B4FF0000A1FFA8BFB19F017
:101EE000010F08D0049B0AEB030292B2039B5946F0
:101EF0002846FFF75FFE0AF1010ABAF1080F4FEA20
:101F00005909ECD1079B013B08F1010813F0FF03CD
:101F10004FFA88F80793CFD111B0BDE8F08F08FBD6
:101F200004631BB2BDF810A006934FF0080B19F024
:101F3000010F039B13D00193059B069900930FFAA1
:101F40008AF22846FFF712FF0BF1FF3BA2441BF079
:101F5000FF0B4FEA59091FFA8AFAE8D1D2E7BB42D0
:101F6000F2D00197E8E71A7A597A414538BF90468E
:101F7000A8EB020859681B680A935FFA88F801EB1E
:101F8000C802022C93780593D3780B9392F905300D
:101F9000069392F906300793069B31F838B038BFA4
:101FA00053460893079B38BF53460993059B1FFA76
:101FB00086F913FA86F6069BF318D04657460D931A
:101FC0000B9B9F42A8D2099A3A44002612FB04F2C6
:101FD00033460C9213E0B8F1000F08D10A990BF1C7
:101FE000010211F80BA04FF080081FFA82FB1AEAD9
:101FF000080F1DD001339BB24FEA580801360599EE
:10200000F2B28A42E7D383B1012CBDF8102039D156
:102010000799039800900A440D993A44C91A12B2DC
:102020001BB209B22846FFF786FE0137FFB2C7E7A9
:1020300093B1012CBDF8102010D10799039800909E
:102040000A44069949443144C91A3A441BB212B2AF
:1020500009B22846FFF76FFE0023CDE70C990A442A
:1020600008993144C91A14FB03F011FB04F1039BD6
:102070004944CDE9004312B203B209B22846FFF742
:1020800075FEE9E70999059E394401FB0422089988
:102090003144C91A14FB03F011FB04F1039B4944BA
:1020A000CDE9004312B203B209B22846FFF75EFE43
:1020B000BBE700BF2CD1000838B50446406B03686D
:1020C0009B690D4698476389A289E9075EBF194657
:1020D00013460A46E281238238BD10B50446006BE0
:1020E00003685B689847606B03681B699847617A6F
:1020F0002046FFF7E1FF206B0368BDE810401B6E30
:10210000012118472DE9F04F8BB01D46149B049216
:10211000012B90F8212004460E4629D10292438BD0
:102120000193038B00932AB2CBB2BDF91010FFF7D5
:102130003FFEE26A3AB994F8210000EB400040000B
:102140000BB0BDE8F08F517A137AB1420ED39E42A4
:10215000C0F031825268F31ADBB202EBC303187984
:1021600094F8213010FB03F000B2E9E71E46F1E7D6
:10217000022BA1F120060DD1754B13F806B0049B7C
:1021800012FB0B31B0F90E30994258DB12FB0BF207
:1021900010B2D5E7D91E052900F296810C214B43D8
:1021A0006C49C85803EB010C043150F82670CB5829
:1021B0009CF8088013F806B0238B618B012A1BFB67
:1021C00008FA1FFA8BF640F083818B4240F0C781FA
:1021D00094F82130206B13FB03F2013BDBB2069332
:1021E0000368D2B25B6D099298474FF00009D14560
:1021F00080F2658117F8013B1A0640F1AC8199FB2A
:10220000FBF803F07F0301330893069B0BFB189642
:10221000002B00F06F8194F82130049A06FB032212
:10222000059208FB0358089B0793079B013BDBB211
:10223000FF2B079340F06381089B9944D7E7464BF7
:10224000018B53F826900BF10603DB100593438BAB
:10225000994202D0012A00F0028110230693BDF9B1
:1022600010300793618B238B8B4209D012FB0BF349
:10227000CDE900211BB207992AB22046FFF776FD6F
:10228000BDF810704FF0000A059B94F821209A4584
:102290000AD19944069B013B15440693E2D194F878
:1022A000210010FB0BF05FE71AF80960002E49D0FF
:1022B000012A73B252D1002B05DA238BAAB2394618
:1022C0002046FFF777FC700606D5791C238BAAB24F
:1022D00089B22046FFF76EFCB10606D5B91C238BE8
:1022E000AAB289B22046FFF765FCF20606D5F91CB2
:1022F000238BAAB289B22046FFF75CFC330706D5D0
:10230000391D238BAAB289B22046FFF753FC700710
:1023100006D5791D238BAAB289B22046FFF74AFC65
:10232000B10706D5B91D238BAAB289B22046FFF7A3
:1023300041FCF20706D5F91D238BAAB289B22046CB
:10234000FFF738FC08370AF1010ABFB29CE700BF6B
:10235000CCD00008F49B00080CC9000808210846EE
:10236000049912FB0AF8002B18FB001809DA13B2C3
:10237000228B0FFA88F1CDE9003220462AB2FFF70E
:10238000F5FC73060BD594F82110228B0B464144C3
:10239000CDE9003209B22AB22046FFF7E7FCB006C9
:1023A0000CD594F82110228B0B4608EB4101CDE9A6
:1023B000003209B22AB22046FFF7D8FCF1060DD54B
:1023C00094F82110228B0B4601EB41014144CDE9E9
:1023D000003209B22AB22046FFF7C8FC32070CD5FA
:1023E00094F82110228B0B4608EB8101CDE90032D5
:1023F00009B22AB22046FFF7B9FC73070DD594F84D
:102400002110228B0B4601EB81014144CDE90032C2
:1024100009B22AB22046FFF7A9FCB0070ED594F8FE
:102420002110228B0B4601EB410108EB4101CDE964
:10243000003209B22AB22046FFF798FCF10781D595
:1024400094F82110228B0B46C1EBC1014144CDE928
:10245000003209B22AB22046FFF788FC72E7006B0F
:1024600003685B6D9847BDF81010606BAAB2059DBC
:102470004B1E02F10F0603EBC503B6B205680096CA
:102480006E699BB2B0471026002512E015F809804E
:1024900008274FF0800A206B036818EA0A0F14BF60
:1024A000217EA17E5B6C9847013F4FEA5A0AF2D128
:1024B0000135059B9D42E9D1013EA944E4D1206B41
:1024C00003689B6D9847EAE60027B846BB4673E66B
:1024D0008B423FF47DAE12FB06F318FB02F212B200
:1024E00001910092BDF910101BB22AB22046FFF7ED
:1024F0003DFC6DE6049BF3180593A84493E6DDE9E3
:10250000052313FA82F3069A606B12FA88F20168C7
:1025100092B200924A69BDF8141016469BB21FFA97
:1025200088F2B047206B069A0368218BDB6C82B17E
:10253000099A984794F82130059A1A440592049A0A
:10254000059913FB0B228A42DEBF9844049B059336
:102550006BE60122EDE7013359FA83F947E6206B78
:1025600003685B6D9847BDF81010606BAAB2551EEA
:102570004B1E45443344ADB20668009575699BB265
:10258000A847206BBAF1000F03689ADD97F9001095
:102590003A78DB6C0029B5BF02F07F0201320132CC
:1025A000D2B2B5BF218B618BAAEB020AAAEB020A59
:1025B00001379847E5E70020C2E500BFF0B50D29D7
:1025C000044685B0084644D0E36A0A2908BF2021A2
:1025D000002B41D194F82050022D11D1414B5A5C6F
:1025E000063202F4FC72102394F82170A68A0A289D
:1025F00007FB03F317D13344A3820023638228E04F
:10260000EA1E052A09D80C26374B6E439A593344E3
:102610000A441B7912F8202CE6E7012D12BF1A4656
:1026200008230622E0E794F8290048B1608A12FBEB
:102630000702E0898242A1BF9B19A3820023638223
:102640000095A38A628A2046FFF75CFD638A1844DE
:102650006082012005B0F0BD0A2809D10022628203
:102660009A7A94F82110A38A01FB0233A382F0E73F
:10267000587A1A7A884233D39142EAD35D688A1A2B
:10268000D2B205EBC205A87818B3EA780AB394F879
:10269000296094F821207EB195F905600644608A8E
:1026A00002FB0600E689B04206DB00266682A08AAD
:1026B0009B7A03FB0203A3820292638B0193238B19
:1026C0000093B4F914200B462046B4F91210FFF71A
:1026D0006FFB297994F82120638A01FB02338DE78F
:1026E0001146CBE7ACD00008F89B0008704700000B
:1026F00038B50E4B1A784FF47A73B3FBF2F30C4AE9
:1027000005461068B0FBF3F000F0BAF8044658B97B
:102710000F2D09D8024629464FF0FF3000F05EF831
:10272000044B20461D6038BD0120FCE70800002056
:10273000400000200C00002008B50B4B1A6842F442
:1027400000721A601A6842F480621A601A6842F4D1
:1027500080721A60032000F02FF80020FFF7C8FFF6
:10276000FFF7C4FF002008BD003C0240034A044BB1
:1027700011681B780B441360704700BFAC02002047
:1027800008000020014B1868704700BFAC02002011
:1027900038B50446FFF7F6FF631C1CBF054B1B78DA
:1027A000054618BFE418FFF7EDFF431BA342FAD319
:1027B00038BD00BF080000200749CA6822F4E06263
:1027C0000302120403F4E063120C134343F0BF63EB
:1027D00043F40033CB60704700ED00E0164B30B59A
:1027E000DC68C4F30224C4F10703251D042B28BFB1
:1027F0000423062D4FF0FF358CBF033C002405FA5F
:1028000003F321EA0303A54022EA0502A3400028BE
:1028100043EA0203ACBF00F16040084A4FEA0313E9
:10282000B8BF00F00F00DBB2AABF00F5614013543F
:1028300080F8003330BD00BF00ED00E014ED00E093
:10284000002807DB044A4109012300F01F008340F0
:1028500042F82130704700BF00E100E000280CDBA7
:102860004309064900F01F0020330122824041F84D
:102870002320BFF34F8FBFF36F8F704700E100E05D
:102880000138B0F1807F0BD24FF0E023054A586148
:10289000F02182F823100020072298611A61704706
:1028A0000120704700ED00E0002808DB43090449DF
:1028B00000F01F0001226033824041F8232070475E
:1028C00000E100E0704708B5FFF7FCFF08BD704766
:1028D00010B5044650B1437903F0FF0213B90271F9
:1028E000FFF7F5FF01236371002010BD0120FCE715
:1028F00010B5044640B10223037102F009FC002028
:1029000020616071207110BD0120FCE710B501232A
:1029100058B1046801F01001226803FA01F122EABB
:10292000010222600371002010BD1846FCE770B55B
:102930000446866DFFF726FF94F83530022B0546D6
:1029400006D0802363650120002384F8343070BDF5
:1029500023681A6822F016021A605A6922F080026F
:102960005A61226C0AB9A26C1AB11A6822F00802E4
:102970001A601A6822F001021A602368186810F0C1
:10298000010007D1E26D3F239340B360012384F837
:102990003530D9E7FFF7F6FE401B0528EDD9202397
:1029A0000320636584F83500CEE790F83530022BBC
:1029B00003D080234365012070470268052380F817
:1029C0003530136823F001031360002070470000C6
:1029D0002DE9F74FDFF8A491664A00230D68012422
:1029E0009C4004EA0506AC4340F0AF804D680327E5
:1029F00005F003044FEA430807FA08FC671E012F9D
:102A00006FEA0C0C34D8876807EA0C0ECF6807FA17
:102A100008F747EA0E078760476827EA060EC5F3FE
:102A200000179F4047EA0E074760C76807EA0C0E89
:102A30008F6807FA08F747EA0E07022CC76019D11A
:102A40004FEAD30A00EB8A0A03F0070BDAF820708A
:102A50004FEA8B0B4FF00F0E0EFA0BFE27EA0E0E0D
:102A60000F6907FA0BF747EA0E07CAF8207001E072
:102A7000032CDAD1076804FA08F407EA0C073C4390
:102A800015F4403F046060D000240194D9F844401C
:102A900044F48044C9F84440D9F8444023F0030783
:102AA00007F1804704F4804407F59C37019403F054
:102AB000030C019CD7F808E04FEA8C0C0F2404FAB1
:102AC0000CF42EEA040E2C4CA04245D004F5806490
:102AD000A04243D004F58064A04241D004F5806454
:102AE000A0423FD004F58064A0423DD004F580644C
:102AF000A0423BD004F58064A04239D004F5806444
:102B0000A04214BF0824072404FA0CF444EA0E047B
:102B1000BC609468F74315F4801F0CBF3C403443FD
:102B20009460D46815F4001F0CBF3C403443D4605B
:102B3000546815F4003F0CBF3C40344354601468A3
:102B4000ED0354BF3C40344314600133102B7FF439
:102B500045AF03B0BDE8F08F0024D5E70124D3E7EB
:102B60000224D1E70324CFE70424CDE70524CBE7F3
:102B70000624C9E7003C0140000002400038024042
:102B8000044A5169014208B502D0506102F0E8FBE5
:102B900008BD00BF003C0140F7B5044610B390F8F3
:102BA0009534056803F0FF021BB980F8942403F004
:102BB00011FE0323B5F1A04F84F8953404BF002320
:102BC000A371206801F0CEFD237C8DF80030251D17
:102BD00095E80E00206801F00AFD014630B102239D
:102BE00084F895340125284603B0F0BD206801F033
:102BF000BFFD0028F3D1267904F114030127024612
:102C0000C1B28E4203F124031BD8002104F51573D1
:102C10000A46C8B2864203F1240320D8237C8DF8EB
:102C2000003095E80E00206801F01EFE05460028E1
:102C3000D5D101236074206884F8953402F049F9F5
:102C4000D1E723F80A0C43E9072203F8237C03F8B1
:102C5000241C03F8202C43F8142C0130D0E743E95E
:102C6000072203F8232C03F8240C03F8202C43F844
:102C7000142C0131CDE710B50446006894F8943463
:102C8000012B15D0012384F89434C3685B0606D564
:102C9000637B012B02BF836B43F48033836301F0BA
:102CA0005BFD206802F007F9002084F8940410BD51
:102CB0000220FCE710B590F89424012A04460AD0BB
:102CC000012280F894244174006802F0E4F80020A6
:102CD00084F8940410BD0220FCE770B50546242456
:102CE00001F00F0011F0800F00FB04F414BF04F199
:102CF000140104F5157105EB040615BF49194919AE
:102D00000124002414BF747586F85542C2F30A02E8
:102D10008A604A7808700B7102B14883022B04BFA5
:102D200000234B7195F89434012B09D001232868B6
:102D300085F8943401F05DFE002085F8940470BDA0
:102D40000220FCE701F00F02242311F0800F02FBA8
:102D500003F310B514BF03F1140103F51571044614
:102D600018BF091918440BBF091901230023437523
:102D700008BF80F855320A7094F89434012B09D0BA
:102D80000123206884F8943401F072FE002084F856
:102D9000940410BD0220FCE738B51546242401F048
:102DA0000F02544304F515710444C4E998530023F9
:102DB00084F8553284F85422C4F868328279012AA2
:102DC000014408BFC4F87052006801F0FDFE002005
:102DD00038BD01F00F01242303FB0100D0F8680285
:102DE000704738B51546242401F00F02544304F10E
:102DF00014010444C4E908530023A362012363754A
:102E0000227582799A42014408BF2563006801F067
:102E1000DBFE002038BD38B5037901F00F05AB4269
:102E200004462BD311F0800F4FF024031DD06B43C9
:102E300003F114010344012201445A7501238B70EC
:102E40000D7094F894249A421AD0206884F894342F
:102E500001F0CDFF2DB9A179206804F29C4202F067
:102E600087F8002084F8940438BD4B4303F51571AE
:102E700003440022014483F85522DFE70120F3E7F1
:102E80000220F1E738B5037901F00F0293420446BE
:102E900025D3242311F0800F02FB03F314BF03F1A9
:102EA000140103F51571184415BF091909190123F7
:102EB00000234FF0000514BF437580F855328D7024
:102EC0000A7094F89434012B0BD00123206884F805
:102ED000943401F0B7FF84F89454284638BD01209B
:102EE000FCE70220FAE701F00F03242253430A060D
:102EF0004CBF03F1140103F515710144006801F0A2
:102F00000DBE00002DE9F04F066889B0044630463A
:102F100002F01BF80390002840F05681206801F071
:102F2000E6FF002800F05081D6F808382068C3F387
:102F30000D23C4F8D43401F0DAFF2368870742BFB9
:102F40005A6902F002025A61184601F0D0FFC00629
:102F500006F500652DD52268936923F0100393616F
:102F6000D6F8208008F4F013B3F5802F08F00F078F
:102F700040F02D8147F6F07318EA030F14D0242394
:102F800003FB0747C8F30A19D7F860124A463046D0
:102F900001F00CFFD7F860324B44C7F86032D7F825
:102FA00068324B44C7F868322268936943F01003D3
:102FB0009361206801F09BFF010300F11B812068F1
:102FC00001F095FF42030CD5206801F09CFF2746D5
:102FD000049006F5106B4FF0000A049B002B40F0A4
:102FE000D381206801F083FF002813DA6B6823F097
:102FF00001036B6094F8CC34012B40F06C8200210B
:1030000084F8CC14204600F0E8FA2268536903F0F3
:1030100000435361206801F06AFF01050AD5AB68DF
:10302000DA0702D5204603F097FC2268536903F4BF
:1030300000635361206801F05AFFC30433D56B6805
:10304000206823F001036B60102101F0C1FB20799F
:1030500006F510634FF67F31039A904200F23F82EB
:10306000EB6943F00113EB61E37B002B00F054822A
:10307000D5F8843043F00B03C5F884306B6C43F013
:103080000B036B64D6F80038206823F4FE63C6F89F
:10309000003804F29C42A17901F06AFF226853696A
:1030A00003F480535361206801F021FF870416D593
:1030B000206801F04EFF206801F090FCE071276865
:1030C00000F002FDE2790146384601F0D5FA2046CB
:1030D00003F031FC2268536903F400535361206804
:1030E00001F005FF000707D5204603F020FC226809
:1030F000536903F008035361206801F0F8FE0106EC
:1031000000F11582206801F0F2FEC2020CD5A04643
:1031100006F5126901272379BB4200F22182226859
:10312000536903F480135361206801F0E0FE8302C9
:103130002DD594F804E0234606F5326001218E4532
:1031400020D993F87CC20268BCF1010F40F01E82C6
:10315000002A80F21B82D4F8D47402F4803207F083
:103160000107BA4240F0128283F87BC2B26942F092
:103170008002B2617269170600F108826B6843F43D
:1031800000736B602268536903F400135361206875
:1031900001F0ADFE410007D5204603F017FC226880
:1031A000536903F080435361206801F0A0FE420799
:1031B0000AD523685D686B0702D5204603F00AFC38
:1031C000226853682B43536009B0BDE8F08FB3F514
:1031D000402F7FF4E9AE082204F29C41304601F012
:1031E000E5FD242303FB0747C8F30A18D7F8683224
:1031F0004344D7E6206801F07EFE06F5306804906F
:10320000A2460027049B002B3FF4D9AE049BDB07AA
:1032100079D55FFA87FB2068594601F07CFE10F0F3
:10322000010F81461FD020680123C8F8083094F8A8
:1032300006C0016C00F5306303EB4713BCF1010FCE
:103240009A6840F08B8012F0080F07D0B048814296
:1032500009D9120407D54FF4004203E012F0200F01
:103260005AD020229A6019F0080F21D00823C8F8FC
:1032700008302368A6491A6C03F5306303EB471343
:103280008A42986804D9010444BF4FF40040986012
:103290002046059203F034FB059A9D498A4207D9DE
:1032A000A179012904D1206804F29C4201F060FE5A
:1032B00019F0100F1CBF1023C8F8083019F0020FC6
:1032C00014D073691B0642BF6B6843F480636B6064
:1032D0009AF85732012B06D100238AF85732594603
:1032E000204603F06BFB0223C8F8083019F0200FCA
:1032F0001CBF2023C8F8083019F4005F1CBF4FF42E
:103300000053C8F80830049B5B080137049308F1A8
:1033100020080AF1240A75E7DFF8F4C1614501D9F4
:10332000120498D41A69DAF87432C2F312029B1AA2
:10333000CAF868326FB9D4F864222AB904F29C4200
:10334000012101F015FE04E0D4F860221A44C4F80B
:1033500060225946204603F0D9FA84E7DFF8B4C169
:10336000614507D111043FF576AF9006F1D52022D3
:103370009A60EEE7002FECD1D4F86432002BE8D14C
:1033800004F29C423946DCE7049BD80740F19A805E
:103390005FFA8AF320680793194601F0C5FD10F023
:1033A000010F804620D06B6B01210AF00F0201FA59
:1033B00002F223EA02036B63CBF80810A17901291A
:1033C0000DD1D7E9072313443B62BAF1000F06D1B0
:1033D000636A23B9206804F29C4201F0C9FD5FFAD8
:1033E0008AF1204603F09BFA18F0080F1CBF08234F
:1033F000CBF8083018F0100F1CBF1023CBF80830A2
:1034000018F0400F1CBF4023CBF8083018F0020F13
:1034100010D05146304601F0DBF9FB7D012B06D17F
:103420000023FB755FFA8AF1204603F0CBFA0223F2
:10343000CBF8083018F0800F44D0D7E909329A420F
:1034400040D8A3EB0208FB6921680591984528BF85
:10345000984601F5106308F1030803EB4A134FEA9D
:1034600098080693069B99697B6A89B2414527D3E0
:103470009A420BD3059B0AF00F00D3F834280121A0
:10348000814022EA0102C3F834281BE0A3EB0209C1
:10349000FB69079A0598994528BF9946A379009337
:1034A000396A1FFA89F301F07BFB3B6ABA6A09F1BA
:1034B00003084B444A444FEA98083B62BA62D1E79A
:1034C0009A42D7D2049B5B080AF1010A049324377D
:1034D0000BF1200B81E5204603F056FA95E5996043
:1034E0001A6822F400121A60C3F80812D3F80022F6
:1034F00022F40012C3F80022D3F8002242F0006246
:10350000C3F80022039A013203922033A4E500BFDE
:103510000A30544F0A31544F6B6943F4005343F05F
:103520002B036B612B6943F00B032B61AAE5B36995
:1035300023F08003B361012704F257284FF02409D8
:103540002379BB427FF6DEAD09FB07F318F80330A1
:10355000012B03D1F9B22046FFF7C5FC0137EFE795
:1035600098F83C30D9F80020012B09D1002A07DA5D
:1035700067F07F0188F83B30C9B22046FFF7B3FC03
:10358000013708F1240809F12009C4E50131243389
:103590002030D4E5006870B5436A120419B91343AA
:1035A0008362002070BD846A4E1E03EB1443002426
:1035B000B44205D33F3100EB810013434360F0E791
:1035C00004F1400500EB850501346D6803EB1543FC
:1035D000EEE7036800205962704770472DE9F34118
:1035E000044640B30368DE0710D423689D075BD40C
:1035F0002368190700F19D8023685A0700F1BD80F8
:10360000A369002B40F0248100202CE08D4B9A68A8
:1036100002F00C02042A07D09A6802F00C02082A71
:103620000BD15B68590208D5864B1B689A03DCD521
:103630006368002BD9D1012015E06368814DB3F593
:10364000803F13D12B6843F480332B60FFF79AF847
:103650007C4E054633689B03C7D4FFF793F8401BA5
:103660006428F7D9032002B0BDE8F081B3F5A02F9C
:1036700004D12B6843F480232B60E3E72A6822F40B
:1036800080322A602A6822F480222A60002BDDD151
:10369000FFF778F806462B689F03A6D5FFF772F868
:1036A000801B6428F7D9DDE7664B9A6812F00C0F8F
:1036B00007D09A6802F00C02082A11D15B685D02FB
:1036C0000ED4604A1368990702D5E368012BB2D182
:1036D0001368216923F0F80343EAC103136087E705
:1036E000E268594BB2B101221A60FFF74BF8554D11
:1036F00006462B689B0707D52B68226923F0F80341
:1037000043EAC2032B6073E7FFF73CF8801B0228F3
:10371000EFD9A7E71A60FFF735F84A4E0546336838
:103720009F077FF565AFFFF72DF8401B0228F6D9FC
:1037300098E76269444B82B10122C3F8802EFFF7FB
:1037400021F8404E0546736F9B073FF555AFFFF7D5
:1037500019F8401B0228F6D984E7C3F8802EFFF73A
:1037600011F8384E0546736F9F077FF545AFFFF799
:1037700009F8401B0228F6D974E7324B1A6C12F094
:10378000805228D101921A6C42F080521A641B6C4C
:1037900003F080530193019B01272C4D2B68D80522
:1037A0001BD5A368274D012B27D12B6F43F00103B5
:1037B0002B67FEF7E7FF234E054641F28838336F4B
:1037C0009A0739D5002F3FF41BAF1E4A136C23F024
:1037D0008053136414E70027DFE72B6843F48073FA
:1037E0002B60FEF7CFFF06462B68D905D9D4FEF72C
:1037F000C9FF801B0228F7D934E7052B04D12B6FB2
:1038000043F004032B67D0E72A6F22F001022A67F6
:103810002A6F22F004022A67002BCAD1FEF7B2FFFA
:1038200041F2883806462B6F9B07CBD5FEF7AAFFDF
:10383000801B4045F7D915E7FEF7A4FF401B404524
:10384000BDD90FE700380240000047420070004039
:10385000374DAA6802F00C02082A3ED0022B354BE5
:103860004FF000021A662BD1FEF78CFF06462B683C
:1038700099011FD4D4E907321343626A43EA8213E1
:10388000E26A43EA0263A26A5208013A43EA024347
:103890006B60284B264D01221A66FEF773FF044623
:1038A0002B689A013FF5B0AEFEF76CFF001B0228B3
:1038B000F6D9D7E6FEF766FF801B0228D7D9D1E6F6
:1038C000FEF760FF04462B689B017FF59DAEFEF777
:1038D00059FF001B0228F6D9C4E6012B3FF4ABAE1A
:1038E0006B68E26903F4800191427FF4A4AE216A1F
:1038F00003F03F028A427FF49EAE616A47F6C072CF
:103900001A40B2EB811F7FF496AEA26A520803F40C
:103910004031013AB1EB024F7FF48DAEE26A03F021
:103920007063B3EB026F14BF012000209BE600BF61
:103930000038024000004742134908B58B6803F085
:103940000C03042B1CD0082B1CD14A684B68496817
:1039500013F4800314BF0D480D48C1F3881118BF3C
:10396000002302F03F02A1FB0001FDF787F8064BA0
:103970005B68C3F3014301335B00B0FBF3F008BDA8
:103980000248FCE70248FAE70038024000127A00D9
:103990000024F4002DE9F0410D46044610B9012041
:1039A000BDE8F081434B1A6802F007028A4228D32F
:1039B00021688F072DD4C80740D43E4B1A6802F007
:1039C0000702AA4265D8226851076BD4130707D5AE
:1039D000394A2169936823F4604343EAC103936041
:1039E000FFF7AAFF344B354A9B68C3F30313D35C3C
:1039F000D840334B1860334B1868FEF779FE00202F
:103A0000CEE7CAB21A701B6803F007038B42C6D117
:103A1000CEE7294B11F0040F1EBF9A6842F4E05222
:103A20009A600E0742BF9A6842F460429A609A68B0
:103A3000A06822F0F00202439A60BCE762681E4B65
:103A4000012A1CD11B6813F4003FA8D01A4EB3689A
:103A500023F003031343B360FEF794FE41F288386A
:103A60000746B368626803F00C03B3EB820FA4D07F
:103A7000FEF788FEC01B4045F3D9032090E7911E56
:103A800001291B6802D813F0007FDEE713F0020F54
:103A9000DBE7EAB21A701B6803F00703AB427FF45E
:103AA0007EAF90E70449E0688B6823F4E05303435A
:103AB0008B608BE7003C02400038024068D600086B
:103AC000400000200C000020014B1868704700BF28
:103AD0004000002070477047036870B5DD681E69BC
:103AE000B10704460DD5AA070BD56FF002021A6183
:103AF000012202779B699B0769D000F024FD002317
:103B00002377710710D56A070ED523686FF004027A
:103B10001A61022222779B6913F4407F20465CD011
:103B200000F011FD0023237733070FD528070DD5AB
:103B300023686FF008021A6104222277DB69990773
:103B4000204650D000F0FFFC00232377F20610D56A
:103B5000EB060ED523686FF010021A610822227757
:103B6000DB6913F4407F204643D000F0ECFC0023D7
:103B70002377F00708D5E90706D523686FF001021F
:103B80001A61204600F0BCFC320608D52B0606D58B
:103B900023686FF080021A61204600F0B6F87006C4
:103BA00008D5690606D523686FF040021A612046E1
:103BB000FFF791FFB20622D5AB0620D523686FF040
:103BC000200220461A61BDE8704000F09DB800F068
:103BD000B8FC2046FFF77EFF91E700F0B2FC2046DC
:103BE000FFF778FF9EE700F0ACFC2046FFF772FF7E
:103BF000AAE700F0A6FC2046FFF76CFFB7E770BD10
:103C0000294A0368904212D0B0F1804F0FD0A2F53C
:103C10007C4290420BD002F58062904207D002F5C0
:103C20008062904203D002F57842904208D14A68FF
:103C300023F070031343CA6823F44073134316E060
:103C40001A4A9042F7D002F580629042F3D002F512
:103C500080629042EFD0A2F598329042EBD002F50C
:103C600080629042E7D002F580629042E3D04A69D8
:103C700023F08003134303608B68C3620B68836285
:103C8000094B984203D003F58063984201D10B6938
:103C90000363012343610369DB0742BF036923F028
:103CA00001030361704700BF000001400040014074
:103CB00010B5044630B390F83D3003F0FF021BB955
:103CC00080F83C2001F066FF0223206884F83D3034
:103CD000211DFFF795FF012384F84630002084F86A
:103CE0003E3084F83F3084F8403084F8413084F826
:103CF000423084F8433084F8443084F8453084F806
:103D00003D3010BD0120FCE770477047026802F1AA
:103D10000C0353E8003F23F490730C3242E8003167
:103D200002680029F2D102F1140353E8003F23F0A6
:103D3000010302F1140C4CE800310029F3D1036BAC
:103D4000012B0BD102F10C0353E8003F23F01003C9
:103D500002F10C0C4CE800310029F3D1202380F84B
:103D6000423000230363704790F84130202B10D17C
:103D700089B182B1C2840162828401680023212258
:103D8000436480F84120CA6842F08002CA60184645
:103D90007047022070470120704708B5806B0023F0
:103DA000C385C38401F084FF08BD704790F842309A
:103DB000222B07B542D181680268836AB1F5805F22
:103DC0003FD1016900293FD15268C2F3080223F8AC
:103DD000022B8362C38D013B9BB2C385002B2DD187
:103DE0000268D16821F02001D160D16821F480718E
:103DF000D160516921F001015161202280F84220F7
:103E00004363026B012A026828D1036302F10C03A9
:103E100053E8003F23F0100302F10C0C4CE8003192
:103E20000029F3D11368DB0605D5019113680193CE
:103E300053680193019B818DFFF7B7FF03B05DF8D5
:103E400004FB39B9016929B95268D2B21A70836A80
:103E50000133BEE7526802F07F02F7E701F022FF6C
:103E6000ECE7000003681A6873B51607D9685D6946
:103E7000044608D1960668D58D0666D502B0BDE821
:103E80007040FFF793BF05F0010001F49075054302
:103E90005BD0D60705D5CD0542BF636C43F0010367
:103EA0006364530704D518B1636C43F00203636481
:103EB000960704D518B1636C43F0040363641507D7
:103EC00007D501F0200303431EBF636C43F00803D2
:103ED0006364636C002B32D0920604D58B0602D546
:103EE0002046FFF763FF26687369626C03F04003A6
:103EF00002F0080253EA0205204622D0FFF706FF2F
:103F000073695E0618D5226802F1140353E8003F76
:103F100023F04003143242E800310029F3D1E06B72
:103F200050B1744B0365FEF740FD40B1E06B036D8B
:103F300002B0BDE870401847204601F0B9FE02B05B
:103F400070BD01F0B5FE6564F9E7206B012840F013
:103F50009580D50640F19280C80640F18F800022FE
:103F600001921A6801925A680192019A5A6952069E
:103F70004ED5E16B0A68526892B2002ADFD0A08D5C
:103F80009042DCD9E285CA69B2F5807F36D003F170
:103F90000C0252E8002F22F4807203F10C0040E87A
:103FA00000210029F3D103F1140252E8002F22F07E
:103FB000010203F1140040E800210029F3D103F1CC
:103FC000140252E8002F22F0400203F1140040E8EE
:103FD00000210029F3D1202284F84220216303F13B
:103FE0000C0252E8002F22F0100203F10C0040E80E
:103FF00000210029F3D1E06BFEF799FC02236363F3
:10400000E38DA18DC91A89B22046FFF7CEFE96E74F
:10401000E28DE18D89B292B2002990D0A18D891AEA
:1040200089B200298BD003F10C0252E8002F22F450
:10403000907203F10C0545E800200028F3D103F14C
:10404000140252E8002F22F0010203F1140545E8A2
:1040500000200028F3D1202284F84220206303F1BD
:104060000C0252E8002F22F0100203F10C0545E883
:1040700000200028F3D102236363C5E7160628D584
:104080000D0626D594F84120212A7FF458AFA16867
:10409000226AB1F5805F17D12169A9B932F8021BF4
:1040A000C1F3080159602262E28C013A92B2E284C3
:1040B000002A7FF444AFDA6822F08002DA60DA681E
:1040C00042F04002DA603AE7511C216212785A60ED
:1040D000EAE750067FF533AF4A067FF530AFDA687E
:1040E00022F04002DA60202384F84130204601F0BB
:1040F000DCFD24E79B3D000890F84030012B11D0F7
:104100000268242380F84130D36823F00C0343F085
:104110000803D360202380F84130002380F840302A
:10412000184670470220704790F84030012B11D09C
:104130000268242380F84130D36823F00C0343F055
:104140000403D360202380F84130002380F84030FE
:10415000184670470220704790F8412090F84200BE
:1041600010437047C285002382850269436422237D
:1041700080F84230816203681AB1DA6842F48072D2
:10418000DA605A6942F001025A61DA6842F02002AC
:10419000DA600020704770B590F84260202E07D199
:1041A00041B13AB100240463FFF7DCFF204670BD43
:1041B0000220FCE70120FAE7836810B504462BB122
:1041C0000322014698470023C4E9023310BD8368E7
:1041D00010B5044613B1032201469847204610BD8E
:1041E000294A9042034633D0B0F1804F32D0A2F535
:1041F0007C42904230D002F5806290422ED002F58F
:10420000806290422CD002F5806290422AD002F562
:104210008062904228D002F57042904226D04FF63C
:10422000FF701A4A934223D0194A934222D0194A66
:10423000934221D0184A934220D0184A93421FD06B
:10424000174A93421ED04FF6FF7398421BD1FEE7E8
:104250000020E6E70120E7E70220E8E70320E9E79E
:104260000420EAE70520EBE70620ECE7072070478B
:1042700008207047092070470A2070470B207047BC
:104280000C2070470D2070470000014000400140A5
:10429000004401400048014000180040001C00405C
:1042A00000200040014670B5044651F8100FFFF79A
:1042B00097FF0546084601F019FB094A002342F81A
:1042C000253004F16006E36004F1B005B54204D086
:1042D000103D2846FFF77BFFF8E7204670BD00BF82
:1042E000B0020020F8B504460846FFF779FF2369BD
:1042F00003B1FEE71B4DA36404F10C0245F8202036
:1043000004F110060E22C4E90C33C4E90E33C4E9EB
:104310001033C4E91623216184F82C3084F84C3022
:1043200084F84D30E460304601F0E8F904F16005AE
:1043300004F1B00728461035FFF73EFFBD42F9D122
:104340000023C4E900334FF6FF72C4E90632C4E922
:104350000833A36063618023A3623046BDE8F84060
:10436000FFF7A6BCB002002010B5074C206810B1C2
:104370000430FFF7B1FB606A20B1BDE810400430A3
:10438000FFF7AABB10BD00BFB0020020034B1868A6
:1043900010B10430FFF7A0BB704700BFB00200208F
:1043A000034B586810B10430FFF796BB704700BF4D
:1043B000B0020020034B986810B10430FFF78CBBAB
:1043C000704700BFB0020020034BD86810B1043022
:1043D000FFF782BB704700BFB0020020034B186993
:1043E00010B10430FFF778BB704700BFB002002067
:1043F000034B586910B10430FFF76EBB704700BF24
:10440000B0020020034B986910B10430FFF764BB81
:10441000704700BFB002002010B5074CE06910B132
:104420000430FFF759FB206B20B1BDE81040043089
:10443000FFF752BB10BD00BFB0020020034BD8698C
:1044400010B10430FFF748BB704700BFB002002036
:10445000034B186A10B10430FFF73EBB704700BF32
:10446000B0020020034B986A10B10430FFF734BB50
:10447000704700BFB0020020034BD86A10B104306F
:10448000FFF72ABB704700BFB0020020034B586BF8
:1044900010B10430FFF720BB704700BFB00200200E
:1044A0000022C0E90022C0E902227047F8B50446A4
:1044B0000E4600F1600500F1B00728461035FFF701
:1044C000EFFFBD42F9D10023204623613146FFF7BB
:1044D00009FF2046F8BD826810B50AB905F08AFACE
:1044E000BDE81040C368184708B500B9FEE701F001
:1044F00003F90068836E13B16030FFF7ECFF08BD6D
:10450000FFF7F2BF10B500B9FEE7037F013B072BB1
:1045100010D8DFE803F004140F100F0F0F1201245E
:1045200001F0EAF80068063400EB041083680BB170
:10453000FFF7D1FF10BD0324F2E70424F0E70224C3
:10454000EEE7FFF7DFBFFFF7DDBF03F063BD03F06A
:1045500069BD00000A490346086810B50344EFF33B
:104560000882934205D9074B0C221A604FF0FF30A6
:1045700010BD054A054C121B9342F4D20B60F7E7BD
:10458000100000207414002000000220000400002D
:10459000FEE70000024B16221A604FF0FF30704712
:1045A000741400200120704782B00023024601935A
:1045B000019B01330193019BB3F1706F15D813690F
:1045C000002BF5DA00230193136943F00103136113
:1045D000019B01330193019BB3F1706F05D8106902
:1045E00010F00100F4D102B070470320FBE784B063
:1045F00038B505AD85E80E009DF81930012B04464D
:1046000027D1836B23F480338363C36823F484034B
:1046100023F04003C360C36823F44013C3609DF8D4
:104620002030012B02BFC36843F48013C360FFF73F
:10463000BBFF9DF81630012B07D1A36843F006039A
:10464000A360A36843F02003A360BDE8384004B032
:104650007047C36843F04003C360FFF7A5FF9DF8B0
:104660001D3023B9A36B43F48033A363E1E7A36B4D
:1046700023F48033F9E70000022A4AD1274B284A65
:104680000B44934239D9274B274A0B44934236D9DE
:10469000264AA1F57403A3F51053934231D9244A55
:1046A000A1F18373A3F5E74393422CD3214B224A14
:1046B0000B44934229D9214B214A0B44934226D3E0
:1046C000204B214A0B44934223D3204AA1F1B773D4
:1046D000A3F5585393421ED31D4B1E4A0B449342DD
:1046E0002CBF06230723C26822F47052C260C2683E
:1046F00042EA8323C360002070470F23F3E70E23B1
:10470000F1E70D23EFE70C23EDE70B23EBE70A239B
:10471000E9E70923E7E70823E5E700BF405327FF60
:10472000FF340C00401E1BFF3F420F007F4F120062
:1047300020D6130060B6E5FE5FE3160000D3CEFE80
:1047400040771B00C05BB3FEC0912100207538008C
:10475000E05459FEE09C4100836843F0010383600C
:1047600000207047836823F00103836000207047B6
:1047700038B5C368012923F0C04305460C46C36021
:1047800014D1C36843F00053C36000240A20FDF72E
:10479000FFFF6B69D90704F10A0402D4C82CF5D1D4
:1047A000C824A4F1C8035842584138BD71B9C36840
:1047B00043F08043C3600A20FDF7EAFF6B69DA0724
:1047C00004F10A04EDD5C82CF5D1E9E70120ECE7A6
:1047D00082B0002302460193019B01330193019BA8
:1047E000B3F1706F15D81369002BF5DA8901002336
:1047F00041F0200101931161019B01330193019B61
:10480000B3F1706F05D8106910F02000F4D102B038
:1048100070470320FBE782B0002302460193019B0F
:1048200001330193019BB3F1706F13D81369002B0F
:10483000F5DA0023019310231361019B01330193E7
:10484000019BB3F1706F05D8106910F01000F4D11E
:1048500002B070470320FBE7D0F800381943C0F8D6
:10486000001800207047000084B02DE9F84304468A
:1048700009A880E80E0000239DF824609DF82E50C2
:10488000194603F1400204EB820201330F2B516001
:10489000F7D104F50067002D6CD17B6843F002036B
:1048A0007B60A36B43F40013A363A36B23F4002387
:1048B000A363A36B23F48023A3630023C4F8003E07
:1048C0009DF82930012B5FD19DF82710002959D17F
:1048D0002046FFF7C1FF10212046FFF779FF014670
:1048E0002046FFF798FF0843C0B2002300383B6121
:1048F00018BF01207B6104F51062FB6119464FF07F
:10490000904C4FF0006E4FF67F389E423ED800220A
:1049100004F5306311464FF0904C4FF0006E4FF6A7
:104920007F38964245D83B6923F480733B6100236E
:10493000A3616FF0804363619DF826301BB9A369C2
:1049400043F01003A361A269234B1343A3619DF8B5
:104950002A301BB1A36943F00803A361012D01BFF5
:10496000A36943F0804343F00403A361BDE8F84327
:1049700004B07047A36B23F40013A363A36B43F449
:10498000002399E71946A3E70321A1E7D2F8009095
:10499000B9F1000F0BDA3BB9C2F800E01161013345
:1049A000C2F808802032B0E7C2F800C0F6E7116014
:1049B000F4E7D3F80090B9F1000F0BDA3AB9C3F875
:1049C00000E019610132C3F808802033A9E7C3F879
:1049D00000C0F6E71960F4E700383C80D0F80838EA
:1049E00013F0060004D013F0020F14BF02200F20B2
:1049F000704730B50C78012204F00F05AA404D78BD
:104A0000012D00F5006300EB441019D1DD692A4344
:104A1000DA61D0F800391A0410D48A68D0F8005945
:104A2000C2F30A030A792B4343EA824343EA8453DD
:104A300043F0805343F40043C0F80039002030BDF8
:104A4000DC6944EA0242DA61D0F8003B1B04F5D489
:104A50008B68D0F8002BC3F30A0313430A7943EAA7
:104A6000824343F0805343F40043C0F8003BE5E742
:104A700010B50A784978012900EB421300F500606F
:104A800002F00F0222D1D3F8001900290BDAD3F873
:104A9000001941F00061C3F80019D3F8001941F082
:104AA0008041C3F80019C46B012101FA02F224EA23
:104AB0000204C463C16921EA0202C261D3F8001989
:104AC000144A0A40C3F80029002010BDD3F8001B87
:104AD00000290BDAD3F8001B41F00061C3F8001B7A
:104AE000D3F8001B41F08041C3F8001BC46B4FF4A6
:104AF000803101FA02F224EA0204C463C16921EAA6
:104B00000202C261D3F8001B034A0A40C3F8002B1B
:104B1000DAE700BF007833EC0078F3EF82B00023CF
:104B20004A7801930B78012A4FEA43131ED100F50E
:104B30001060C118C258002A02DB002002B0704782
:104B4000C25842F00062C250C25842F08042C25085
:104B500042F21072019B01330193019B934201D9F0
:104B60000120EBE70B68002BF4DBE6E700F5306093
:104B7000C118C258002AE0DAC25842F00062C2509E
:104B8000C25842F08042C25042F21072019B01337F
:104B90000193019B9342E3D80B68002BF6DBCCE733
:104BA00010B59DF8084044B9033301329B0800EB6F
:104BB000023001EB8303994201D1002010BD51F86E
:104BC000042B0260F7E700002DE9F7434B7891F8DA
:104BD00000E091F804C0724C012B1746714B0A6932
:104BE00000EB4E1540F08D8005F5106642BB326932
:104BF00013403361336943F4002333613369234045
:104C00003361012F52D1CB6903B17361BCF1010F44
:104C10000CD1D0F8083813F4807FD5F800390CBFD8
:104C200043F0005343F08053C5F80039D5F80039FC
:104C300043F00443C5F80039002003B0BDE8F08319
:104C4000D6F8108008EA04043461346923403361E3
:104C50008B68BEF1000F0DD193423CBF0B611A4629
:104C6000336943F4002333613369C2F312041C43F4
:104C70003461C6E79C18013CB4FBF3F44A4BD6F808
:104C800010801FFA84F903EAC44444EA0804BCF122
:104C9000010F3461E8D1336923F0C04333613469D3
:104CA0004FEA497303F0C0432343DCE7D5F80039EA
:104CB000BCF1010F43F00443C5F800390B690CD077
:104CC000002BB9D0D0F834280EF00F0E012303FAD0
:104CD0000EF31343C0F83438AEE7D0F8082812F4C6
:104CE000807FD5F800290CBF42F0005242F080527C
:104CF000C5F800290097C9689BB27246FFF750FFBC
:104D00009AE7D5F8108B08EA0404C5F8104BD5F8DB
:104D1000104B234005F5306633618B68BEF1000F00
:104D200027D102B10B610B623269C3F31203134343
:104D30003361336943F40023012F336102D1CB681F
:104D400003B17361BCF1010F0CD1D0F8083813F432
:104D5000807FD5F8003B0CBF43F0005343F08053F5
:104D6000C5F8003BD5F8003B43F00443C5F8003BD1
:104D700062E7002AD8D09C180B4AD6F810E0013C14
:104D8000B4FBF3F4A4B202EAC442634342EA0E0263
:104D90000B6232613269C3F312031343CCE700BFE5
:104DA0000000F8FFFFFF07E00000F81F70B50023C8
:104DB000940800F5805502F00302A34204D301EBEE
:104DC000840132B9084670BD2E6841F82360013372
:104DD000F3E700F5805000230468D80024FA00F0BF
:104DE0005854013398B28242F7D15018EBE74A7811
:104DF0000B78012A00EB431012D1D0F80029002AC9
:104E000006DB2BB1D0F8003923F08043C0F800391D
:104E1000D0F8003943F40013C0F80039002070477F
:104E2000D0F8002B002A06DB2BB1D0F8003B23F092
:104E30008043C0F8003BD0F8003B43F40013C0F8B7
:104E4000003BEBE70B784A7800EB43100B79012A23
:104E5000A3F10203DBB20FD1D0F80029012B22F419
:104E60000012C0F8002905D8D0F8003943F080536B
:104E7000C0F8003900207047D0F8002B22F400124F
:104E8000012BC0F8002B9EBFD0F8003B43F08053AD
:104E9000C0F8003BEEE7D0F8003823F4FE63C0F81A
:104EA0000038D0F80038090101F4FE611943C0F858
:104EB000001800207047D0F8003E23F00303C0F82C
:104EC000003ED0F8043823F00203C0F80438002074
:104ED0007047D0F8003E23F00303C0F8003ED0F83E
:104EE000043843F00203C0F80438002070474269D8
:104EF000806910407047D0F8183800F50060C0692C
:104F00001840000C7047D0F8183800F50060C069F0
:104F1000184080B2704700EB411100F50060D1F8F5
:104F2000082B406910407047D0F81028D0F834386A
:104F300000EB411001F00F01CB4000F51060DB01E8
:104F40008068DBB2134318407047406900F00100ED
:104F50007047D0F800396FF30A03C0F80039D0F871
:104F6000043843F48073C0F8043800207047000010
:104F700030B5056C104CA54200F5306303D9D0F86C
:104F8000004B002C16DB00241C611C6944F4002437
:104F90001C611C6944F018041C611C69012944F05F
:104FA000C0441C6101BF5A61D0F8003B43F080232C
:104FB000C0F8003B002030BD0A30544F8AB00023B7
:104FC00008287CD8DFE800F00513202D3A4754610B
:104FD0006E0001933B4B3C481A6B42F001021A638E
:104FE0001B6B03F001030193019B0AB0704702930E
:104FF000344B36481A6B42F002021A631B6B03F003
:1050000002030293029BF0E703932E4B30481A6B86
:1050100042F004021A631B6B03F004030393039B27
:10502000E3E70493274B2B481A6B42F008021A63FC
:105030001B6B03F008030493049BD6E70593214BF5
:1050400025481A6B42F010021A631B6B03F0100321
:105050000593059BC9E706931A4B20481A6B42F04B
:1050600020021A631B6B03F020030693069BBCE728
:105070000793144B1A481A6B42F040021A631B6BD9
:1050800003F040030793079BAFE708930D4B1548C8
:105090001A6B42F080021A631B6B03F080030893C3
:1050A000089BA2E70993074B0F481A6B42F48072E2
:1050B0001A631B6B03F480730993099B95E7002027
:1050C00093E700BF003802400000024000040240A5
:1050D00000080240000C0240001002400014024090
:1050E00000180240001C02400020024008B5074999
:1050F00000F0D5FAC0F3C430012802D0022802D053
:10510000FEE7002008BD1020FCE700BF30DC0008EF
:105110000268094B9A420DD103F5E2331A6A42F054
:1051200000521A621A6A22F000521A621A6C22F0B5
:1051300000521A64704700BF0074004010B509495E
:1051400086B0044600F089FA019048B12046FFF786
:10515000CDFF014601A8FDF7D9FB01A8FDF7C8FB6B
:1051600006B010BD30DC0008F8B51349134F0646F1
:1051700000F073FAFFF734F857F82030054673B99A
:10518000B020FFF7E2F90C490446304600F065FA1A
:1051900001462046FFF78AF957F825301C601C6845
:1051A00044B12046FFF77EF82046B021BDE8F84024
:1051B000FFF7CDB9F8BD00BFC4D80008B002002089
:1051C000FDF7E0BA704708B5FDF7D0FAFDF77BFBB5
:1051D000FFF7F8FF08BD704784B0114B0022019221
:1051E000196C41F080511964196C01F080510191E2
:1051F00001990292596C41F480415964596C01F44F
:1052000080410291029903921A6B42F480521A6310
:105210001B6B03F480530393039B04B0704700BFE0
:10522000003802400C4BD3F8FC20D2015EBFD3F80B
:10523000FC2042F08072C3F8FC20084B00225A6028
:105240001A6842F001021A6000BF00BF00BF586830
:10525000B0FA80F04009704700ED00E0001000E077
:1052600008B5FFF7B9FFFFF7DDFFFDF765FAFFF7B8
:10527000B2FF02F0E1FA0348FDF72AFBBDE808405F
:1052800001F0E6BC380000200023C0E90033C0E98B
:10529000023370472DE9F04715468CB00C460022CA
:1052A000012C02F1010653D1D6B2CDE907137200E9
:1052B000C168DFF8A880032393400B40D34003F07C
:1052C00003034FF0020A07A914240993CDF828A07C
:1052D0007443FDF77DFBD5F808900023043403AF39
:1052E00003934444C7E901330693B9F1000F32D068
:1052F000524629463846C847D5E9029C142597E806
:105300000300754308EB050301AA043382E8030098
:1053100093E8030087E8030092E8030083E80300B2
:10532000A3680593C4F80890E368C4F80CC0384635
:105330000693FEF74CFF18F9050000220621FDF741
:105340004DFA18F90500FDF77BFA0CB0BDE8F087BF
:1053500064083246A4E7CC46D0E700BFE80200204C
:105360000023012803F101020AD11422DBB25343C6
:10537000054A181D1044816829B11A441369184759
:1053800040081346EDE77047E80200200120FDF7D2
:10539000F7BB0220FDF7F4BB0420FDF7F1BB0820AA
:1053A000FDF7EEBB1020FDF7EBBB08B52020FDF7A5
:1053B000E7FB4020FDF7E4FB8020FDF7E1FB4FF425
:1053C0008070FDF7DDFBBDE808404FF40070FDF78D
:1053D000D7BB38B506244FF48065A8B2FDF7D0FBE3
:1053E000013C4FEA4505F8D138BD0000344A10466B
:1053F00008B5062300F8043BFFF746FF072302F138
:1054000018001375FFF740FF082302F12C0082F803
:105410002830FFF739FF092302F1400082F83C30C1
:10542000FFF732FF0A2302F1540082F850301721AF
:10543000FFF72AFF02F1680082F86410FFF724FFEB
:1054400002F17C0082F87810FFF71EFF02F1900055
:1054500082F88C10FFF718FF02F1A40082F8A01068
:10546000FFF712FF02F1B80082F8B4102821FFF70D
:105470000BFF02F1CC0082F8C810FFF705FF02F124
:10548000E00082F8DC10FFF7FFFE02F1F40082F882
:10549000F010FFF7F9FE02F5847082F80411FFF7AF
:1054A000F3FE02F58E7082F81811FFF7EDFEBDE8ED
:1054B000084002F5987082F82C11FFF7E5BE00BF96
:1054C000E802002038B5054CA4F5A075143C201D59
:1054D000FEF77DFEAC42F9D138BD00BF28040020A4
:1054E00030B591FAA1F391FAA1F1B3FA83F3C4684C
:1054F0005B000325B1FA81F105FA03F3490024EAC0
:1055000003038A401A43C26030BD431C04D00C31EF
:1055100051F80C3C5A1C01D100207047834201F124
:105520000C01F5D101207047F8B5471C06460D4621
:1055300000D1FEE700F00F02414BC0F3031053F817
:105540002240FFF73BFD94FAA4F3B3FA83F3876894
:1055500003225B0002FA03F394FAA4F2B2FA82F295
:1055600027EA03075200032393403B4305F007015A
:105570008360032903D8DFE801F05F612C03FEE7B5
:10558000032394FAA4F2B2FA82F2066852000327C7
:1055900007FA02F226EA020694FAA4F2B2FA82F2BA
:1055A00052009340013933430129036005D8436811
:1055B0002A074CBF2343A3434360C5F30112012ACA
:1055C00002D0022A18BF00222146BDE8F840FFF7AA
:1055D00087BFC5F306227F2A01D10223D1E7360710
:1055E00016D5230A93FAA3F6B6FA86F6476A93FA13
:1055F000A3F3B6004FF00F0CB3FA83F30CFA06F6E0
:105600009B0027EA060602FA03F333434362E4E70A
:1056100094FAA4F3B3FA83F3066A9B000F2707FA00
:1056200003F326EA030694FAA4F3B3FA83F39B0088
:105630009A4032430262D0E70023A2E70123A0E7A9
:1056400028D600080B685A1C01D1002070478342FD
:1056500001D1486870470C31F4E7431C01D0FFF7D3
:10566000F1BF002070474B6813B94FF0FF3070470F
:10567000834201D1086870470C31F4E708B1FFF7A5
:10568000F2BF4FF0FF30704703460868421C00D15C
:105690007047984201D1886870470C31F5E7431C88
:1056A00001D0FFF7F1BF70471049D1F8883043F4BB
:1056B0007003C1F888300E4B1A6842F001021A607C
:1056C00000229A601A6822F0847222F480321A60F2
:1056D000084A5A601A6822F480221A604FF43F0286
:1056E000DA604FF000638B60704700BF00ED00E0B0
:1056F00000380240103000240438704703686D4AB7
:1057000093428EB02AD1002200926B4A516C41F034
:1057100001015164526C02F001020092009A674A42
:1057200093422AD100220592634A116C41F0100184
:105730001164126C02F010020592059A604A9342BD
:105740002AD100230A935C4B5A6C42F480225A649B
:105750005B6C03F480230A930A9BA9E0B3F1804FAA
:105760002AD100220192544A116C41F001011164C6
:10577000126C02F001020192019A524A93422AD11C
:10578000002206924C4A116C41F020011164126C07
:1057900002F020020692069A4B4A93422AD1002335
:1057A0000B93454B1A6C42F040021A641B6C03F0D9
:1057B00040030B930B9B7BE0444A93422AD1002287
:1057C00002923D4A116C41F002011164126C02F028
:1057D00002020292029A3E4A93422AD10022079282
:1057E000354A516C41F002015164526C02F00202E0
:1057F0000792079A374A93422AD100230C932E4BE3
:105800001A6C42F080021A641B6C03F080030C9344
:105810000C9B4DE0304A93422AD100220392264A43
:10582000116C41F004011164126C02F00402039245
:10583000039A2A4A93422BD1002208921E4A516CA5
:1058400041F480315164526C02F480320892089A1B
:10585000234A93422CD100230D93174B1A6C42F428
:1058600080721A641B6C03F480730D930D9B1FE010
:105870001C4A93427FF453AF002204920E4A116CEB
:1058800041F008011164126C02F008020492049ABB
:10589000154A93427FF452AF00230993064B5A6C8A
:1058A00042F400325A645B6C03F400330993099BA1
:1058B0000EB0704700000140003802400010004068
:1058C000004801400014004000180040000400405F
:1058D00000040140001C004000080040004001405E
:1058E00000200040000C00400044014003683B4A97
:1058F000934215D13A494A6C22F001024A64394A6E
:10590000934215D136490A6C22F010020A64364AD5
:10591000934215D102F57042536C23F480235BE06F
:10592000B3F1804F16D12E490A6C22F001020A64AD
:105930002E4A934216D12A490A6C22F020020A64A8
:105940002B4A934216D102F50832136C23F0400320
:1059500013647047274A934215D121490A6C22F0FB
:1059600002020A64244A934215D11D494A6C22F06E
:1059700002024A64214A934215D102F50732136CA0
:1059800023F08003E4E71E4A934215D114490A6CC0
:1059900022F004020A641B4A934215D110494A6C52
:1059A00022F480324A64184A9342D2D102F5063278
:1059B000136C23F48073CBE7144A93429FD10849B8
:1059C0000A6C22F008020A64114A93429FD102F540
:1059D0007442536C23F40033536470470000014059
:1059E0000038024000100040004801400014004010
:1059F000001800400004004000040140001C00406A
:105A0000000800400040014000200040000C004021
:105A100000440140431C3AD0294B98423AD018D850
:105A2000A3F54063984237D00BD8A3F500639842A2
:105A300034D003F58063984232D0B0F1804F31D03A
:105A4000FEE7204B98422FD003F5806398422DD07B
:105A5000F6E71D4B98422DD00CD8A3F5644398422D
:105A600026D003F56043984226D0A3F564439842BC
:105A700020D0E5E7154B98421ED003F5806398428D
:105A80001CD0A3F500639842DAD1182070476FF05C
:105A90000D0070472B207047322070471D20704743
:105AA0001E2070471C2070473620704737207047F3
:105AB0002D2070472C207047192070471A207047FE
:105AC0000018004000100040000401400044014064
:105AD000431C3AD02B4B98423AD01CD8A3F58053A4
